{
  "contractName": "EternalStorage",
  "abi": [
    {
      "inputs": [],
      "name": "getMyAddress",
      "outputs": [
        {
          "internalType": "address",
          "name": "",
          "type": "address"
        }
      ],
      "stateMutability": "view",
      "type": "function",
      "constant": true
    },
    {
      "inputs": [
        {
          "internalType": "address",
          "name": "_myAddress",
          "type": "address"
        }
      ],
      "name": "setMyAddress",
      "outputs": [],
      "stateMutability": "nonpayable",
      "type": "function"
    },
    {
      "inputs": [],
      "name": "getMyUint",
      "outputs": [
        {
          "internalType": "uint256",
          "name": "",
          "type": "uint256"
        }
      ],
      "stateMutability": "view",
      "type": "function",
      "constant": true
    },
    {
      "inputs": [
        {
          "internalType": "uint256",
          "name": "_myUint",
          "type": "uint256"
        }
      ],
      "name": "setMyUint",
      "outputs": [],
      "stateMutability": "nonpayable",
      "type": "function"
    }
  ],
  "bytecode": "0x608060405234801561001057600080fd5b506102c2806100206000396000f3fe608060405234801561001057600080fd5b506004361061004c5760003560e01c8063392aee47146100515780639a1662991461006f578063a8a7b8951461008d578063e492fd84146100a9575b600080fd5b6100596100c5565b604051610066919061015e565b60405180910390f35b6100776100cf565b60405161008491906101ba565b60405180910390f35b6100a760048036038101906100a29190610206565b6100f8565b005b6100c360048036038101906100be919061025f565b61013b565b005b6000600154905090565b60008060009054906101000a900473ffffffffffffffffffffffffffffffffffffffff16905090565b806000806101000a81548173ffffffffffffffffffffffffffffffffffffffff021916908373ffffffffffffffffffffffffffffffffffffffff16021790555050565b8060018190555050565b6000819050919050565b61015881610145565b82525050565b6000602082019050610173600083018461014f565b92915050565b600073ffffffffffffffffffffffffffffffffffffffff82169050919050565b60006101a482610179565b9050919050565b6101b481610199565b82525050565b60006020820190506101cf60008301846101ab565b92915050565b600080fd5b6101e381610199565b81146101ee57600080fd5b50565b600081359050610200816101da565b92915050565b60006020828403121561021c5761021b6101d5565b5b600061022a848285016101f1565b91505092915050565b61023c81610145565b811461024757600080fd5b50565b60008135905061025981610233565b92915050565b600060208284031215610275576102746101d5565b5b60006102838482850161024a565b9150509291505056fea26469706673582212202abef73dd8f30e239dc550e36981a71fd15ecda815c9c768dcf0f202b0efb98464736f6c63430008110033",
  "immutableReferences": {},
  "source": "// SPDX-License-Identifier: MIT\npragma solidity ^0.8.1;\n\ncontract EternalStorage {\n    address myAddress;\n    uint256 myUint;\n\n    function getMyAddress() public view returns (address) {\n        return myAddress;\n    }\n\n    function setMyAddress(address _myAddress) public {\n        myAddress = _myAddress;\n    }\n\n    function getMyUint() public view returns (uint256) {\n        return myUint;\n    }\n\n    function setMyUint(uint256 _myUint) public {\n        myUint = _myUint;\n    }\n}\n",
  "sourcePath": "/home/neosoft/S/EIP/1_EternalStorage/solidity/contracts/EternalStorage.sol",
  "compiler": {
    "name": "solc",
    "version": "0.8.17+commit.8df45f5f.Emscripten.clang"
  },
  "schemaVersion": "3.4.11",
  "updatedAt": "2023-01-09T08:49:58.550Z",
  "networkType": "ethereum",
  "devdoc": {
    "kind": "dev",
    "methods": {},
    "version": 1
  },
  "userdoc": {
    "kind": "user",
    "methods": {},
    "version": 1
  }
}