{
  "contractName": "Logic1",
  "abi": [
    {
      "inputs": [],
      "name": "_EternalStorage",
      "outputs": [
        {
          "internalType": "address",
          "name": "",
          "type": "address"
        }
      ],
      "stateMutability": "view",
      "type": "function",
      "constant": true
    },
    {
      "inputs": [
        {
          "internalType": "address",
          "name": "_eternalStorage",
          "type": "address"
        }
      ],
      "name": "setEternalAdd",
      "outputs": [],
      "stateMutability": "nonpayable",
      "type": "function"
    },
    {
      "inputs": [],
      "name": "getAddress",
      "outputs": [
        {
          "internalType": "address",
          "name": "",
          "type": "address"
        }
      ],
      "stateMutability": "view",
      "type": "function",
      "constant": true
    },
    {
      "inputs": [
        {
          "internalType": "address",
          "name": "_address",
          "type": "address"
        }
      ],
      "name": "setAddress",
      "outputs": [],
      "stateMutability": "nonpayable",
      "type": "function"
    }
  ],
  "bytecode": "0x608060405234801561001057600080fd5b5061051c806100206000396000f3fe608060405234801561001057600080fd5b506004361061004c5760003560e01c80631a169fe31461005157806338cc48311461006f578063b5ad3f5e1461008d578063e30081a0146100a9575b600080fd5b6100596100c5565b60405161006691906103ae565b60405180910390f35b6100776100e9565b60405161008491906103ae565b60405180910390f35b6100a760048036038101906100a291906103fa565b61020d565b005b6100c360048036038101906100be91906103fa565b610250565b005b60008054906101000a900473ffffffffffffffffffffffffffffffffffffffff1681565b60008073ffffffffffffffffffffffffffffffffffffffff1660008054906101000a900473ffffffffffffffffffffffffffffffffffffffff1673ffffffffffffffffffffffffffffffffffffffff1603610179576040517f08c379a000000000000000000000000000000000000000000000000000000000815260040161017090610484565b60405180910390fd5b60008054906101000a900473ffffffffffffffffffffffffffffffffffffffff1673ffffffffffffffffffffffffffffffffffffffff16639a1662996040518163ffffffff1660e01b8152600401602060405180830381865afa1580156101e4573d6000803e3d6000fd5b505050506040513d601f19601f8201168201806040525081019061020891906104b9565b905090565b806000806101000a81548173ffffffffffffffffffffffffffffffffffffffff021916908373ffffffffffffffffffffffffffffffffffffffff16021790555050565b600073ffffffffffffffffffffffffffffffffffffffff1660008054906101000a900473ffffffffffffffffffffffffffffffffffffffff1673ffffffffffffffffffffffffffffffffffffffff16036102df576040517f08c379a00000000000000000000000000000000000000000000000000000000081526004016102d690610484565b60405180910390fd5b60008054906101000a900473ffffffffffffffffffffffffffffffffffffffff1673ffffffffffffffffffffffffffffffffffffffff1663a8a7b895826040518263ffffffff1660e01b815260040161033891906103ae565b600060405180830381600087803b15801561035257600080fd5b505af1158015610366573d6000803e3d6000fd5b5050505050565b600073ffffffffffffffffffffffffffffffffffffffff82169050919050565b60006103988261036d565b9050919050565b6103a88161038d565b82525050565b60006020820190506103c3600083018461039f565b92915050565b600080fd5b6103d78161038d565b81146103e257600080fd5b50565b6000813590506103f4816103ce565b92915050565b6000602082840312156104105761040f6103c9565b5b600061041e848285016103e5565b91505092915050565b600082825260208201905092915050565b7f657465726e616c2073746f72616765206e6f7420736574000000000000000000600082015250565b600061046e601783610427565b915061047982610438565b602082019050919050565b6000602082019050818103600083015261049d81610461565b9050919050565b6000815190506104b3816103ce565b92915050565b6000602082840312156104cf576104ce6103c9565b5b60006104dd848285016104a4565b9150509291505056fea2646970667358221220d242104c1bb1b9185b1f78b47c2a6378ce77085c57685c7735f599e55caa13a664736f6c63430008110033",
  "immutableReferences": {},
  "source": "// SPDX-License-Identifier: MIT\npragma solidity ^0.8.1;\nimport \"./EternalStorage.sol\";\n\ncontract Logic1 {\n    address public _EternalStorage;\n\n    function setEternalAdd(address _eternalStorage) public {\n        _EternalStorage = _eternalStorage;\n    }\n\n    function getAddress() public view returns (address) {\n      require(_EternalStorage != address(0),\"eternal storage not set\");\n        return EternalStorage(_EternalStorage).getMyAddress();\n    }\n\n    function setAddress(address _address) public {\n      require(_EternalStorage != address(0),\"eternal storage not set\");\n        EternalStorage(_EternalStorage).setMyAddress(_address);\n    }\n}\n",
  "sourcePath": "/home/neosoft/S/EIP/1_EternalStorage/solidity/contracts/Logic1.sol",
  "compiler": {
    "name": "solc",
    "version": "0.8.17+commit.8df45f5f.Emscripten.clang"
  },
  "schemaVersion": "3.4.11",
  "updatedAt": "2023-01-09T08:49:58.958Z",
  "networkType": "ethereum",
  "devdoc": {
    "kind": "dev",
    "methods": {},
    "version": 1
  },
  "userdoc": {
    "kind": "user",
    "methods": {},
    "version": 1
  }
}