{
  "contractName": "Logic2",
  "abi": [
    {
      "inputs": [],
      "name": "_EternalStorage",
      "outputs": [
        {
          "internalType": "address",
          "name": "",
          "type": "address"
        }
      ],
      "stateMutability": "view",
      "type": "function",
      "constant": true
    },
    {
      "inputs": [
        {
          "internalType": "address",
          "name": "_eternalStorage",
          "type": "address"
        }
      ],
      "name": "setEternalAdd",
      "outputs": [],
      "stateMutability": "nonpayable",
      "type": "function"
    },
    {
      "inputs": [],
      "name": "getAddress",
      "outputs": [
        {
          "internalType": "address",
          "name": "",
          "type": "address"
        }
      ],
      "stateMutability": "view",
      "type": "function",
      "constant": true
    },
    {
      "inputs": [
        {
          "internalType": "address",
          "name": "_address",
          "type": "address"
        }
      ],
      "name": "setAddress",
      "outputs": [],
      "stateMutability": "nonpayable",
      "type": "function"
    },
    {
      "inputs": [],
      "name": "getUint",
      "outputs": [
        {
          "internalType": "uint256",
          "name": "",
          "type": "uint256"
        }
      ],
      "stateMutability": "view",
      "type": "function",
      "constant": true
    },
    {
      "inputs": [
        {
          "internalType": "uint256",
          "name": "_Uint",
          "type": "uint256"
        }
      ],
      "name": "getUint",
      "outputs": [],
      "stateMutability": "nonpayable",
      "type": "function"
    }
  ],
  "bytecode": "0x608060405234801561001057600080fd5b5061087b806100206000396000f3fe608060405234801561001057600080fd5b50600436106100615760003560e01c80620267a4146100665780631a169fe31461008457806338cc4831146100a2578063a9c70eaa146100c0578063b5ad3f5e146100dc578063e30081a0146100f8575b600080fd5b61006e610114565b60405161007b9190610616565b60405180910390f35b61008c610238565b6040516100999190610672565b60405180910390f35b6100aa61025c565b6040516100b79190610672565b60405180910390f35b6100da60048036038101906100d591906106be565b610380565b005b6100f660048036038101906100f19190610717565b61049d565b005b610112600480360381019061010d9190610717565b6104e0565b005b60008073ffffffffffffffffffffffffffffffffffffffff1660008054906101000a900473ffffffffffffffffffffffffffffffffffffffff1673ffffffffffffffffffffffffffffffffffffffff16036101a4576040517f08c379a000000000000000000000000000000000000000000000000000000000815260040161019b906107a1565b60405180910390fd5b60008054906101000a900473ffffffffffffffffffffffffffffffffffffffff1673ffffffffffffffffffffffffffffffffffffffff1663392aee476040518163ffffffff1660e01b8152600401602060405180830381865afa15801561020f573d6000803e3d6000fd5b505050506040513d601f19601f8201168201806040525081019061023391906107d6565b905090565b60008054906101000a900473ffffffffffffffffffffffffffffffffffffffff1681565b60008073ffffffffffffffffffffffffffffffffffffffff1660008054906101000a900473ffffffffffffffffffffffffffffffffffffffff1673ffffffffffffffffffffffffffffffffffffffff16036102ec576040517f08c379a00000000000000000000000000000000000000000000000000000000081526004016102e3906107a1565b60405180910390fd5b60008054906101000a900473ffffffffffffffffffffffffffffffffffffffff1673ffffffffffffffffffffffffffffffffffffffff16639a1662996040518163ffffffff1660e01b8152600401602060405180830381865afa158015610357573d6000803e3d6000fd5b505050506040513d601f19601f8201168201806040525081019061037b9190610818565b905090565b600073ffffffffffffffffffffffffffffffffffffffff1660008054906101000a900473ffffffffffffffffffffffffffffffffffffffff1673ffffffffffffffffffffffffffffffffffffffff160361040f576040517f08c379a0000000000000000000000000000000000000000000000000000000008152600401610406906107a1565b60405180910390fd5b60008054906101000a900473ffffffffffffffffffffffffffffffffffffffff1673ffffffffffffffffffffffffffffffffffffffff1663e492fd84826040518263ffffffff1660e01b81526004016104689190610616565b600060405180830381600087803b15801561048257600080fd5b505af1158015610496573d6000803e3d6000fd5b5050505050565b806000806101000a81548173ffffffffffffffffffffffffffffffffffffffff021916908373ffffffffffffffffffffffffffffffffffffffff16021790555050565b600073ffffffffffffffffffffffffffffffffffffffff1660008054906101000a900473ffffffffffffffffffffffffffffffffffffffff1673ffffffffffffffffffffffffffffffffffffffff160361056f576040517f08c379a0000000000000000000000000000000000000000000000000000000008152600401610566906107a1565b60405180910390fd5b60008054906101000a900473ffffffffffffffffffffffffffffffffffffffff1673ffffffffffffffffffffffffffffffffffffffff1663a8a7b895826040518263ffffffff1660e01b81526004016105c89190610672565b600060405180830381600087803b1580156105e257600080fd5b505af11580156105f6573d6000803e3d6000fd5b5050505050565b6000819050919050565b610610816105fd565b82525050565b600060208201905061062b6000830184610607565b92915050565b600073ffffffffffffffffffffffffffffffffffffffff82169050919050565b600061065c82610631565b9050919050565b61066c81610651565b82525050565b60006020820190506106876000830184610663565b92915050565b600080fd5b61069b816105fd565b81146106a657600080fd5b50565b6000813590506106b881610692565b92915050565b6000602082840312156106d4576106d361068d565b5b60006106e2848285016106a9565b91505092915050565b6106f481610651565b81146106ff57600080fd5b50565b600081359050610711816106eb565b92915050565b60006020828403121561072d5761072c61068d565b5b600061073b84828501610702565b91505092915050565b600082825260208201905092915050565b7f657465726e616c2073746f72616765206e6f7420736574000000000000000000600082015250565b600061078b601783610744565b915061079682610755565b602082019050919050565b600060208201905081810360008301526107ba8161077e565b9050919050565b6000815190506107d081610692565b92915050565b6000602082840312156107ec576107eb61068d565b5b60006107fa848285016107c1565b91505092915050565b600081519050610812816106eb565b92915050565b60006020828403121561082e5761082d61068d565b5b600061083c84828501610803565b9150509291505056fea26469706673582212201b7c4f47a6e06ce537f74b4d3f2216bea92a6ea649e0bea9772a943ae794982764736f6c63430008110033",
  "immutableReferences": {},
  "source": "// SPDX-License-Identifier: MIT\npragma solidity ^0.8.1;\nimport \"./EternalStorage.sol\";\n\ncontract Logic2 {\n    address public _EternalStorage;\n\n    function setEternalAdd(address _eternalStorage) public {\n        _EternalStorage = _eternalStorage;\n    }\n\n    function getAddress() public view returns (address) {\n        require(_EternalStorage != address(0), \"eternal storage not set\");\n        return EternalStorage(_EternalStorage).getMyAddress();\n    }\n\n    function setAddress(address _address) public {\n        require(_EternalStorage != address(0), \"eternal storage not set\");\n        EternalStorage(_EternalStorage).setMyAddress(_address);\n    }\n\n    function getUint() public view returns (uint256) {\n        require(_EternalStorage != address(0), \"eternal storage not set\");\n        return EternalStorage(_EternalStorage).getMyUint();\n    }\n\n    function getUint(uint256 _Uint) public {\n        require(_EternalStorage != address(0), \"eternal storage not set\");\n        EternalStorage(_EternalStorage).setMyUint(_Uint);\n    }\n}\n",
  "sourcePath": "/home/neosoft/S/EIP/1_EternalStorage/solidity/contracts/Logic2.sol",
  "compiler": {
    "name": "solc",
    "version": "0.8.17+commit.8df45f5f.Emscripten.clang"
  },
  "schemaVersion": "3.4.11",
  "updatedAt": "2023-01-09T08:49:59.232Z",
  "networkType": "ethereum",
  "devdoc": {
    "kind": "dev",
    "methods": {},
    "version": 1
  },
  "userdoc": {
    "kind": "user",
    "methods": {},
    "version": 1
  }
}