{
  "contractName": "Proxy",
  "abi": [
    {
      "stateMutability": "payable",
      "type": "fallback",
      "payable": true
    },
    {
      "inputs": [],
      "name": "_contractAddress",
      "outputs": [
        {
          "internalType": "address",
          "name": "",
          "type": "address"
        }
      ],
      "stateMutability": "view",
      "type": "function",
      "constant": true
    },
    {
      "inputs": [],
      "name": "logicContractAddress",
      "outputs": [
        {
          "internalType": "address",
          "name": "",
          "type": "address"
        }
      ],
      "stateMutability": "view",
      "type": "function",
      "constant": true
    },
    {
      "stateMutability": "payable",
      "type": "receive",
      "payable": true
    },
    {
      "inputs": [
        {
          "internalType": "address",
          "name": "_logicContract",
          "type": "address"
        }
      ],
      "name": "setLogicAddress",
      "outputs": [],
      "stateMutability": "nonpayable",
      "type": "function"
    }
  ],
  "bytecode": "0x608060405234801561001057600080fd5b50610276806100206000396000f3fe6080604052600436106100385760003560e01c8063379887671461008c578063bccda810146100b7578063fdcfc3ef146100e25761003f565b3661003f57005b60008060009054906101000a900473ffffffffffffffffffffffffffffffffffffffff16905060405136600082376000803683855af43d806000843e8160008114610088578184f35b8184fd5b34801561009857600080fd5b506100a161010b565b6040516100ae91906101c7565b60405180910390f35b3480156100c357600080fd5b506100cc610113565b6040516100d991906101c7565b60405180910390f35b3480156100ee57600080fd5b5061010960048036038101906101049190610213565b610137565b005b600030905090565b60008054906101000a900473ffffffffffffffffffffffffffffffffffffffff1681565b61014081610143565b50565b806000806101000a81548173ffffffffffffffffffffffffffffffffffffffff021916908373ffffffffffffffffffffffffffffffffffffffff16021790555050565b600073ffffffffffffffffffffffffffffffffffffffff82169050919050565b60006101b182610186565b9050919050565b6101c1816101a6565b82525050565b60006020820190506101dc60008301846101b8565b92915050565b600080fd5b6101f0816101a6565b81146101fb57600080fd5b50565b60008135905061020d816101e7565b92915050565b600060208284031215610229576102286101e2565b5b6000610237848285016101fe565b9150509291505056fea2646970667358221220e6768f4d233201123de9d8e6a875f896bb0cafad540afe4a0973cf723ff8602664736f6c63430008110033",
  "immutableReferences": {},
  "source": "// SPDX-License-Identifier: MIT\npragma solidity ^0.8.1;\nimport './ProxyStorage.sol';\n\ncontract Proxy is ProxyStorage {\n\n    // constructor(address _logicContract) {\n    //     setLogicAddress(_logicContract);\n    // }\n\n    function setLogicAddress(address _logicContract) public {\n        super.setLogicAddressStorage(_logicContract);\n    }\n    \n\n     /**\n  * @dev Fallback function allowing to perform a delegatecall to the given implementation.\n  * This function will return whatever the implementation call returns\n  */\n  fallback() payable external {\n    address _impl = logicContractAddress;\n\n    assembly {\n      let ptr := mload(0x40)\n      calldatacopy(ptr, 0, calldatasize())\n      let result := delegatecall(gas(), _impl, ptr, calldatasize(), 0, 0)\n      let size := returndatasize()\n      returndatacopy(ptr, 0, size)\n\n      switch result\n      case 0 { revert(ptr, size) }\n      default { return(ptr, size) }\n    }\n  }\n  receive()payable external {}\n}\n",
  "sourcePath": "/home/neosoft/S/EIP/solidity/contracts/Proxy.sol",
  "compiler": {
    "name": "solc",
    "version": "0.8.17+commit.8df45f5f.Emscripten.clang"
  },
  "schemaVersion": "3.4.11",
  "updatedAt": "2022-12-26T10:25:30.085Z",
  "networkType": "ethereum",
  "devdoc": {
    "kind": "dev",
    "methods": {},
    "version": 1
  },
  "userdoc": {
    "kind": "user",
    "methods": {},
    "version": 1
  }
}