{
  "contractName": "Logic1",
  "abi": [
    {
      "anonymous": false,
      "inputs": [
        {
          "indexed": false,
          "internalType": "address",
          "name": "_callBy",
          "type": "address"
        },
        {
          "indexed": false,
          "internalType": "uint256",
          "name": "_amount",
          "type": "uint256"
        }
      ],
      "name": "Logic1Deposit",
      "type": "event"
    },
    {
      "anonymous": false,
      "inputs": [
        {
          "indexed": false,
          "internalType": "address",
          "name": "_callBy",
          "type": "address"
        }
      ],
      "name": "Logic1Increment",
      "type": "event"
    },
    {
      "anonymous": false,
      "inputs": [
        {
          "indexed": false,
          "internalType": "address",
          "name": "_callBy",
          "type": "address"
        },
        {
          "indexed": false,
          "internalType": "address",
          "name": "_address",
          "type": "address"
        }
      ],
      "name": "Logic1SetAdd",
      "type": "event"
    },
    {
      "inputs": [],
      "name": "_contractAddress",
      "outputs": [
        {
          "internalType": "address",
          "name": "",
          "type": "address"
        }
      ],
      "stateMutability": "view",
      "type": "function",
      "constant": true
    },
    {
      "inputs": [
        {
          "internalType": "address",
          "name": "",
          "type": "address"
        }
      ],
      "name": "balanceOf",
      "outputs": [
        {
          "internalType": "uint256",
          "name": "",
          "type": "uint256"
        }
      ],
      "stateMutability": "view",
      "type": "function",
      "constant": true
    },
    {
      "inputs": [],
      "name": "logicContractAddress",
      "outputs": [
        {
          "internalType": "address",
          "name": "",
          "type": "address"
        }
      ],
      "stateMutability": "view",
      "type": "function",
      "constant": true
    },
    {
      "inputs": [],
      "name": "myAddress",
      "outputs": [
        {
          "internalType": "address",
          "name": "",
          "type": "address"
        }
      ],
      "stateMutability": "view",
      "type": "function",
      "constant": true
    },
    {
      "inputs": [],
      "name": "myUint",
      "outputs": [
        {
          "internalType": "uint256",
          "name": "",
          "type": "uint256"
        }
      ],
      "stateMutability": "view",
      "type": "function",
      "constant": true
    },
    {
      "inputs": [
        {
          "internalType": "address",
          "name": "_address",
          "type": "address"
        }
      ],
      "name": "setAddress",
      "outputs": [],
      "stateMutability": "nonpayable",
      "type": "function"
    },
    {
      "inputs": [],
      "name": "inc",
      "outputs": [],
      "stateMutability": "nonpayable",
      "type": "function"
    },
    {
      "inputs": [],
      "name": "deposit",
      "outputs": [],
      "stateMutability": "payable",
      "type": "function",
      "payable": true
    }
  ],
  "bytecode": "0x608060405234801561001057600080fd5b506105a3806100206000396000f3fe60806040526004361061007b5760003560e01c806370a082311161004e57806370a0823114610118578063bccda81014610155578063d0e30db014610180578063e30081a01461018a5761007b565b806306540f7e1461008057806326b85ee1146100ab578063371303c0146100d657806337988767146100ed575b600080fd5b34801561008c57600080fd5b506100956101b3565b6040516100a2919061039b565b60405180910390f35b3480156100b757600080fd5b506100c06101b9565b6040516100cd91906103f7565b60405180910390f35b3480156100e257600080fd5b506100eb6101df565b005b3480156100f957600080fd5b50610102610230565b60405161010f91906103f7565b60405180910390f35b34801561012457600080fd5b5061013f600480360381019061013a9190610443565b610238565b60405161014c919061039b565b60405180910390f35b34801561016157600080fd5b5061016a610250565b60405161017791906103f7565b60405180910390f35b610188610274565b005b34801561019657600080fd5b506101b160048036038101906101ac9190610443565b610305565b005b60025481565b600160009054906101000a900473ffffffffffffffffffffffffffffffffffffffff1681565b600260008154809291906101f29061049f565b91905055507f960563dd69fe22612c5f700c3768206952a1ff140b02e116eb41bec64022f4423360405161022691906103f7565b60405180910390a1565b600030905090565b60036020528060005260406000206000915090505481565b60008054906101000a900473ffffffffffffffffffffffffffffffffffffffff1681565b34600360003373ffffffffffffffffffffffffffffffffffffffff1673ffffffffffffffffffffffffffffffffffffffff16815260200190815260200160002060008282546102c391906104e7565b925050819055507f47d75591ab13bbef53143ef5354c522cff9d06e36c90a5e16ef75ebb688e4b7e33346040516102fb92919061051b565b60405180910390a1565b80600160006101000a81548173ffffffffffffffffffffffffffffffffffffffff021916908373ffffffffffffffffffffffffffffffffffffffff1602179055507fb42d6f132aa55595737504df801ff95236e493caf6e9c284524485386f87ea0a3382604051610377929190610544565b60405180910390a150565b6000819050919050565b61039581610382565b82525050565b60006020820190506103b0600083018461038c565b92915050565b600073ffffffffffffffffffffffffffffffffffffffff82169050919050565b60006103e1826103b6565b9050919050565b6103f1816103d6565b82525050565b600060208201905061040c60008301846103e8565b92915050565b600080fd5b610420816103d6565b811461042b57600080fd5b50565b60008135905061043d81610417565b92915050565b60006020828403121561045957610458610412565b5b60006104678482850161042e565b91505092915050565b7f4e487b7100000000000000000000000000000000000000000000000000000000600052601160045260246000fd5b60006104aa82610382565b91507fffffffffffffffffffffffffffffffffffffffffffffffffffffffffffffffff82036104dc576104db610470565b5b600182019050919050565b60006104f282610382565b91506104fd83610382565b925082820190508082111561051557610514610470565b5b92915050565b600060408201905061053060008301856103e8565b61053d602083018461038c565b9392505050565b600060408201905061055960008301856103e8565b61056660208301846103e8565b939250505056fea2646970667358221220d5f6c40ac3444424326a870471b2292a3a3f44c309bb22224768311926736b7d64736f6c63430008110033",
  "immutableReferences": {},
  "source": "// SPDX-License-Identifier: MIT\npragma solidity ^0.8.1;\nimport './ProxyStorage.sol';\n\ncontract Logic1 is ProxyStorage {\n    event Logic1SetAdd(address _callBy, address _address);\n    event Logic1Increment(address _callBy);\n    event Logic1Deposit(address _callBy, uint256 _amount);\n\n    address public myAddress;\n    uint public myUint;\n    mapping (address => uint) public balanceOf;\n\n    function setAddress(address _address) public {\n        myAddress = _address;\n        emit Logic1SetAdd(msg.sender, _address);\n    }\n\n    function inc() public {\n        myUint++;\n        emit Logic1Increment(msg.sender);\n    }\n\n    function deposit()public payable{\n        balanceOf[msg.sender] += msg.value;\n        emit Logic1Deposit(msg.sender, msg.value);\n    }\n\n}",
  "sourcePath": "/home/neosoft/S/NeoSoft/Upgrade-Smart-Contract-and-Smart-Contract-Proxies/2_EIP897_Delegate_Proxy/solidity/contracts/Logic1.sol",
  "compiler": {
    "name": "solc",
    "version": "0.8.17+commit.8df45f5f.Emscripten.clang"
  },
  "schemaVersion": "3.4.11",
  "updatedAt": "2023-02-10T10:13:34.259Z",
  "networkType": "ethereum",
  "devdoc": {
    "kind": "dev",
    "methods": {},
    "version": 1
  },
  "userdoc": {
    "kind": "user",
    "methods": {},
    "version": 1
  }
}