{
  "contractName": "Logic2",
  "abi": [
    {
      "anonymous": false,
      "inputs": [
        {
          "indexed": false,
          "internalType": "address",
          "name": "_callBy",
          "type": "address"
        }
      ],
      "name": "Logic2Decrement",
      "type": "event"
    },
    {
      "anonymous": false,
      "inputs": [
        {
          "indexed": false,
          "internalType": "address",
          "name": "_callBy",
          "type": "address"
        },
        {
          "indexed": false,
          "internalType": "uint256",
          "name": "_amount",
          "type": "uint256"
        }
      ],
      "name": "Logic2Deposit",
      "type": "event"
    },
    {
      "anonymous": false,
      "inputs": [
        {
          "indexed": false,
          "internalType": "address",
          "name": "_callBy",
          "type": "address"
        }
      ],
      "name": "Logic2Increment",
      "type": "event"
    },
    {
      "anonymous": false,
      "inputs": [
        {
          "indexed": false,
          "internalType": "address",
          "name": "_callBy",
          "type": "address"
        },
        {
          "indexed": false,
          "internalType": "address",
          "name": "_address",
          "type": "address"
        }
      ],
      "name": "Logic2SetAdd",
      "type": "event"
    },
    {
      "anonymous": false,
      "inputs": [
        {
          "indexed": false,
          "internalType": "address",
          "name": "_callBy",
          "type": "address"
        },
        {
          "indexed": false,
          "internalType": "uint256",
          "name": "_amount",
          "type": "uint256"
        }
      ],
      "name": "Logic2Withdraw",
      "type": "event"
    },
    {
      "inputs": [],
      "name": "_contractAddress",
      "outputs": [
        {
          "internalType": "address",
          "name": "",
          "type": "address"
        }
      ],
      "stateMutability": "view",
      "type": "function"
    },
    {
      "inputs": [
        {
          "internalType": "address",
          "name": "",
          "type": "address"
        }
      ],
      "name": "balanceOf",
      "outputs": [
        {
          "internalType": "uint256",
          "name": "",
          "type": "uint256"
        }
      ],
      "stateMutability": "view",
      "type": "function"
    },
    {
      "inputs": [],
      "name": "logicContractAddress",
      "outputs": [
        {
          "internalType": "address",
          "name": "",
          "type": "address"
        }
      ],
      "stateMutability": "view",
      "type": "function"
    },
    {
      "inputs": [],
      "name": "myAddress",
      "outputs": [
        {
          "internalType": "address",
          "name": "",
          "type": "address"
        }
      ],
      "stateMutability": "view",
      "type": "function"
    },
    {
      "inputs": [],
      "name": "myUint",
      "outputs": [
        {
          "internalType": "uint256",
          "name": "",
          "type": "uint256"
        }
      ],
      "stateMutability": "view",
      "type": "function"
    },
    {
      "inputs": [
        {
          "internalType": "address",
          "name": "_address",
          "type": "address"
        }
      ],
      "name": "setAddress",
      "outputs": [],
      "stateMutability": "nonpayable",
      "type": "function"
    },
    {
      "inputs": [],
      "name": "inc",
      "outputs": [],
      "stateMutability": "nonpayable",
      "type": "function"
    },
    {
      "inputs": [],
      "name": "dec",
      "outputs": [],
      "stateMutability": "nonpayable",
      "type": "function"
    },
    {
      "inputs": [],
      "name": "deposit",
      "outputs": [],
      "stateMutability": "payable",
      "type": "function"
    },
    {
      "inputs": [
        {
          "internalType": "uint256",
          "name": "_amount",
          "type": "uint256"
        }
      ],
      "name": "withdraw",
      "outputs": [],
      "stateMutability": "nonpayable",
      "type": "function"
    }
  ],
  "bytecode": "0x608060405234801561001057600080fd5b506109af806100206000396000f3fe6080604052600436106100915760003560e01c806370a082311161005957806370a0823114610157578063b3bcfa8214610194578063bccda810146101ab578063d0e30db0146101d6578063e30081a0146101e057610091565b806306540f7e1461009657806326b85ee1146100c15780632e1a7d4d146100ec578063371303c014610115578063379887671461012c575b600080fd5b3480156100a257600080fd5b506100ab610209565b6040516100b891906105e2565b60405180910390f35b3480156100cd57600080fd5b506100d661020f565b6040516100e3919061063e565b60405180910390f35b3480156100f857600080fd5b50610113600480360381019061010e919061068a565b610235565b005b34801561012157600080fd5b5061012a610390565b005b34801561013857600080fd5b506101416103e1565b60405161014e919061063e565b60405180910390f35b34801561016357600080fd5b5061017e600480360381019061017991906106e3565b6103e9565b60405161018b91906105e2565b60405180910390f35b3480156101a057600080fd5b506101a9610401565b005b3480156101b757600080fd5b506101c0610497565b6040516101cd919061063e565b60405180910390f35b6101de6104bb565b005b3480156101ec57600080fd5b50610207600480360381019061020291906106e3565b61054c565b005b60025481565b600160009054906101000a900473ffffffffffffffffffffffffffffffffffffffff1681565b80600360003373ffffffffffffffffffffffffffffffffffffffff1673ffffffffffffffffffffffffffffffffffffffff1681526020019081526020016000205410156102b7576040517f08c379a00000000000000000000000000000000000000000000000000000000081526004016102ae9061076d565b60405180910390fd5b80600360003373ffffffffffffffffffffffffffffffffffffffff1673ffffffffffffffffffffffffffffffffffffffff168152602001908152602001600020600082825461030691906107bc565b925050819055503373ffffffffffffffffffffffffffffffffffffffff166108fc829081150290604051600060405180830381858888f19350505050158015610353573d6000803e3d6000fd5b507f729a0744b3aee26d0fbcc49b624b8e5ece06f1e9fc79bfa5c88f247b0399232d33826040516103859291906107f0565b60405180910390a150565b600260008154809291906103a390610819565b91905055507f69741404ed67b75c823044fef3b5ffd7cac8e7e38db2dc304801cb932913fd57336040516103d7919061063e565b60405180910390a1565b600030905090565b60036020528060005260406000206000915090505481565b600060025411610446576040517f08c379a000000000000000000000000000000000000000000000000000000000815260040161043d906108d3565b60405180910390fd5b60026000815480929190610459906108f3565b91905055507f3ac7604a943b9ee5b4f975aad7e30225ea6a7420210015145b170fbce7710cf73360405161048d919061063e565b60405180910390a1565b60008054906101000a900473ffffffffffffffffffffffffffffffffffffffff1681565b34600360003373ffffffffffffffffffffffffffffffffffffffff1673ffffffffffffffffffffffffffffffffffffffff168152602001908152602001600020600082825461050a919061091c565b925050819055507f8b2d508306f6928f673131c9409ffaad08b59295f1783cec7a63769240c6af2b33346040516105429291906107f0565b60405180910390a1565b80600160006101000a81548173ffffffffffffffffffffffffffffffffffffffff021916908373ffffffffffffffffffffffffffffffffffffffff1602179055507fbe2cd5da95e48012410343ef14b637580d4f2cb317d1e35f83475a2eddc8ea6433826040516105be929190610950565b60405180910390a150565b6000819050919050565b6105dc816105c9565b82525050565b60006020820190506105f760008301846105d3565b92915050565b600073ffffffffffffffffffffffffffffffffffffffff82169050919050565b6000610628826105fd565b9050919050565b6106388161061d565b82525050565b6000602082019050610653600083018461062f565b92915050565b600080fd5b610667816105c9565b811461067257600080fd5b50565b6000813590506106848161065e565b92915050565b6000602082840312156106a05761069f610659565b5b60006106ae84828501610675565b91505092915050565b6106c08161061d565b81146106cb57600080fd5b50565b6000813590506106dd816106b7565b92915050565b6000602082840312156106f9576106f8610659565b5b6000610707848285016106ce565b91505092915050565b600082825260208201905092915050565b7f496e73756666696369656e742042616c616e6365000000000000000000000000600082015250565b6000610757601483610710565b915061076282610721565b602082019050919050565b600060208201905081810360008301526107868161074a565b9050919050565b7f4e487b7100000000000000000000000000000000000000000000000000000000600052601160045260246000fd5b60006107c7826105c9565b91506107d2836105c9565b92508282039050818111156107ea576107e961078d565b5b92915050565b6000604082019050610805600083018561062f565b61081260208301846105d3565b9392505050565b6000610824826105c9565b91507fffffffffffffffffffffffffffffffffffffffffffffffffffffffffffffffff82036108565761085561078d565b5b600182019050919050565b7f6d7955696e74206973207a65726f20666972737420696e6372656d656e74206960008201527f742e000000000000000000000000000000000000000000000000000000000000602082015250565b60006108bd602283610710565b91506108c882610861565b604082019050919050565b600060208201905081810360008301526108ec816108b0565b9050919050565b60006108fe826105c9565b9150600082036109115761091061078d565b5b600182039050919050565b6000610927826105c9565b9150610932836105c9565b925082820190508082111561094a5761094961078d565b5b92915050565b6000604082019050610965600083018561062f565b610972602083018461062f565b939250505056fea26469706673582212206794127e3930ee175ef13285c46a199f158aaaff6c22476c32ce6b9eec3df0bf64736f6c63430008110033",
  "immutableReferences": {},
  "source": "// SPDX-License-Identifier: MIT\npragma solidity ^0.8.1;\nimport \"./ProxyStorage.sol\";\n\ncontract Logic2 is ProxyStorage {\n    event Logic2SetAdd(address _callBy, address _address);\n    event Logic2Increment(address _callBy);\n    event Logic2Decrement(address _callBy);\n    event Logic2Deposit(address _callBy, uint256 _amount);\n    event Logic2Withdraw(address _callBy, uint256 _amount);\n    \n    address public myAddress;\n    uint256 public myUint;\n    mapping (address => uint) public balanceOf;\n\n    function setAddress(address _address) public {\n        myAddress = _address;\n        emit Logic2SetAdd(msg.sender, _address);\n    }\n\n    function inc() public {\n        myUint++;\n        emit Logic2Increment(msg.sender);\n    }\n\n    function dec() public {\n        require(myUint > 0, \"myUint is zero first increment it.\");\n        myUint--;\n        emit Logic2Decrement(msg.sender);\n    }\n\n    function deposit()public payable{\n        balanceOf[msg.sender] += msg.value;\n        emit Logic2Deposit(msg.sender, msg.value);\n    }\n\n    function withdraw(uint _amount)public {\n        require(balanceOf[msg.sender] >= _amount,\"Insufficient Balance\");\n        balanceOf[msg.sender] -= _amount;\n        payable(msg.sender).transfer(_amount);\n        emit Logic2Withdraw(msg.sender, _amount);\n    }\n}\n",
  "sourcePath": "/home/neosoft/S/EIP/EIP-897_Proxy/solidity/contracts/Logic2.sol",
  "compiler": {
    "name": "solc",
    "version": "0.8.17+commit.8df45f5f.Emscripten.clang"
  },
  "schemaVersion": "3.4.11",
  "updatedAt": "2023-02-10T08:52:13.586Z",
  "devdoc": {
    "kind": "dev",
    "methods": {},
    "version": 1
  },
  "userdoc": {
    "kind": "user",
    "methods": {},
    "version": 1
  }
}