{
  "contractName": "Proxy",
  "abi": [
    {
      "anonymous": false,
      "inputs": [
        {
          "indexed": true,
          "internalType": "address",
          "name": "_setBy",
          "type": "address"
        },
        {
          "indexed": true,
          "internalType": "address",
          "name": "_logicContract",
          "type": "address"
        }
      ],
      "name": "LogicAddressSet",
      "type": "event"
    },
    {
      "stateMutability": "payable",
      "type": "fallback",
      "payable": true
    },
    {
      "inputs": [],
      "name": "_contractAddress",
      "outputs": [
        {
          "internalType": "address",
          "name": "",
          "type": "address"
        }
      ],
      "stateMutability": "view",
      "type": "function",
      "constant": true
    },
    {
      "inputs": [],
      "name": "logicContractAddress",
      "outputs": [
        {
          "internalType": "address",
          "name": "",
          "type": "address"
        }
      ],
      "stateMutability": "view",
      "type": "function",
      "constant": true
    },
    {
      "stateMutability": "payable",
      "type": "receive",
      "payable": true
    },
    {
      "inputs": [
        {
          "internalType": "address",
          "name": "_logicContract",
          "type": "address"
        }
      ],
      "name": "setLogicAddress",
      "outputs": [],
      "stateMutability": "nonpayable",
      "type": "function"
    }
  ],
  "bytecode": "0x608060405234801561001057600080fd5b506102cf806100206000396000f3fe6080604052600436106100385760003560e01c8063379887671461008c578063bccda810146100b7578063fdcfc3ef146100e25761003f565b3661003f57005b60008060009054906101000a900473ffffffffffffffffffffffffffffffffffffffff16905060405136600082376000803683855af43d806000843e8160008114610088578184f35b8184fd5b34801561009857600080fd5b506100a161010b565b6040516100ae9190610220565b60405180910390f35b3480156100c357600080fd5b506100cc610113565b6040516100d99190610220565b60405180910390f35b3480156100ee57600080fd5b506101096004803603810190610104919061026c565b610137565b005b600030905090565b60008054906101000a900473ffffffffffffffffffffffffffffffffffffffff1681565b6101408161019c565b8073ffffffffffffffffffffffffffffffffffffffff163373ffffffffffffffffffffffffffffffffffffffff167e27a293a256dce711e575f55bd0d5142f091eeb4248bc3242bebc4e2181b9e660405160405180910390a350565b806000806101000a81548173ffffffffffffffffffffffffffffffffffffffff021916908373ffffffffffffffffffffffffffffffffffffffff16021790555050565b600073ffffffffffffffffffffffffffffffffffffffff82169050919050565b600061020a826101df565b9050919050565b61021a816101ff565b82525050565b60006020820190506102356000830184610211565b92915050565b600080fd5b610249816101ff565b811461025457600080fd5b50565b60008135905061026681610240565b92915050565b6000602082840312156102825761028161023b565b5b600061029084828501610257565b9150509291505056fea26469706673582212208452305d29ee3f5f02b7a4a9b5b682ee392ae1172a370890575fe7bc0910809164736f6c63430008110033",
  "immutableReferences": {},
  "source": "// SPDX-License-Identifier: MIT\npragma solidity ^0.8.1;\nimport \"./ProxyStorage.sol\";\n\ncontract Proxy is ProxyStorage {\n    // constructor(address _logicContract) {\n    //     setLogicAddress(_logicContract);\n    // }\n    event LogicAddressSet(address indexed _setBy, address indexed _logicContract);\n\n    function setLogicAddress(address _logicContract) public {\n        super.setLogicAddressStorage(_logicContract);\n        emit LogicAddressSet(msg.sender, _logicContract);\n    }\n\n    /**\n     * @dev Fallback function allowing to perform a delegatecall to the given implementation.\n     * This function will return whatever the implementation call returns\n     */\n    fallback() external payable {\n        address _impl = logicContractAddress;\n\n        assembly {\n            let ptr := mload(0x40)\n            calldatacopy(ptr, 0, calldatasize())\n            let result := delegatecall(gas(), _impl, ptr, calldatasize(), 0, 0)\n            let size := returndatasize()\n            returndatacopy(ptr, 0, size)\n\n            switch result\n            case 0 {\n                revert(ptr, size)\n            }\n            default {\n                return(ptr, size)\n            }\n        }\n    }\n\n    receive() external payable {}\n}\n",
  "sourcePath": "/home/neosoft/S/EIP/EIP-897_Proxy/solidity/contracts/Proxy.sol",
  "compiler": {
    "name": "solc",
    "version": "0.8.17+commit.8df45f5f.Emscripten.clang"
  },
  "schemaVersion": "3.4.11",
  "updatedAt": "2023-02-10T08:44:24.594Z",
  "networkType": "ethereum",
  "devdoc": {
    "kind": "dev",
    "methods": {},
    "version": 1
  },
  "userdoc": {
    "kind": "user",
    "methods": {},
    "version": 1
  }
}