{
  "contractName": "ProxyStorage",
  "abi": [
    {
      "inputs": [],
      "name": "logicContractAddress",
      "outputs": [
        {
          "internalType": "address",
          "name": "",
          "type": "address"
        }
      ],
      "stateMutability": "view",
      "type": "function"
    },
    {
      "inputs": [],
      "name": "_contractAddress",
      "outputs": [
        {
          "internalType": "address",
          "name": "",
          "type": "address"
        }
      ],
      "stateMutability": "view",
      "type": "function"
    }
  ],
  "bytecode": "0x608060405234801561001057600080fd5b50610123806100206000396000f3fe6080604052348015600f57600080fd5b506004361060325760003560e01c806337988767146037578063bccda810146051575b600080fd5b603d606b565b6040516048919060d4565b60405180910390f35b60576073565b6040516062919060d4565b60405180910390f35b600030905090565b60008054906101000a900473ffffffffffffffffffffffffffffffffffffffff1681565b600073ffffffffffffffffffffffffffffffffffffffff82169050919050565b600060c0826097565b9050919050565b60ce8160b7565b82525050565b600060208201905060e7600083018460c7565b9291505056fea26469706673582212208140f0dca99caf9a6e28d3ca4b31b9475b6f83ab27d8991ea2bdd4747ea500ab64736f6c63430008110033",
  "immutableReferences": {},
  "source": "// SPDX-License-Identifier: MIT\npragma solidity ^0.8.1;\n\ncontract ProxyStorage {\n    address public logicContractAddress;\n\n    function setLogicAddressStorage(address _logicContract) internal {\n        logicContractAddress = _logicContract;\n    }\n\n    function _contractAddress() public view returns (address) {\n        return address(this);\n    }\n}\n",
  "sourcePath": "/home/neosoft/S/NeoSoft/Upgrade-Smart-Contract-and-Smart-Contract-Proxies/2_EIP897_Delegate_Proxy/solidity/contracts/ProxyStorage.sol",
  "compiler": {
    "name": "solc",
    "version": "0.8.17+commit.8df45f5f.Emscripten.clang"
  },
  "schemaVersion": "3.4.11",
  "updatedAt": "2023-02-10T10:05:13.986Z",
  "devdoc": {
    "kind": "dev",
    "methods": {},
    "version": 1
  },
  "userdoc": {
    "kind": "user",
    "methods": {},
    "version": 1
  }
}