{
  "contractName": "Logic1",
  "abi": [
    {
      "inputs": [],
      "name": "_contractAddress",
      "outputs": [
        {
          "internalType": "address",
          "name": "",
          "type": "address"
        }
      ],
      "stateMutability": "view",
      "type": "function",
      "constant": true
    },
    {
      "inputs": [
        {
          "internalType": "address",
          "name": "",
          "type": "address"
        }
      ],
      "name": "balanceOf",
      "outputs": [
        {
          "internalType": "uint256",
          "name": "",
          "type": "uint256"
        }
      ],
      "stateMutability": "view",
      "type": "function",
      "constant": true
    },
    {
      "inputs": [],
      "name": "logicContractAddress",
      "outputs": [
        {
          "internalType": "address",
          "name": "",
          "type": "address"
        }
      ],
      "stateMutability": "view",
      "type": "function",
      "constant": true
    },
    {
      "inputs": [],
      "name": "myAddress",
      "outputs": [
        {
          "internalType": "address",
          "name": "",
          "type": "address"
        }
      ],
      "stateMutability": "view",
      "type": "function",
      "constant": true
    },
    {
      "inputs": [],
      "name": "myUint",
      "outputs": [
        {
          "internalType": "uint256",
          "name": "",
          "type": "uint256"
        }
      ],
      "stateMutability": "view",
      "type": "function",
      "constant": true
    },
    {
      "inputs": [
        {
          "internalType": "address",
          "name": "_address",
          "type": "address"
        }
      ],
      "name": "setAddress",
      "outputs": [],
      "stateMutability": "nonpayable",
      "type": "function"
    },
    {
      "inputs": [],
      "name": "inc",
      "outputs": [],
      "stateMutability": "nonpayable",
      "type": "function"
    },
    {
      "inputs": [],
      "name": "deposit",
      "outputs": [],
      "stateMutability": "payable",
      "type": "function",
      "payable": true
    }
  ],
  "bytecode": "0x608060405234801561001057600080fd5b506104a8806100206000396000f3fe60806040526004361061007b5760003560e01c806370a082311161004e57806370a0823114610118578063bccda81014610155578063d0e30db014610180578063e30081a01461018a5761007b565b806306540f7e1461008057806326b85ee1146100ab578063371303c0146100d657806337988767146100ed575b600080fd5b34801561008c57600080fd5b506100956101b3565b6040516100a291906102f2565b60405180910390f35b3480156100b757600080fd5b506100c06101b9565b6040516100cd919061034e565b60405180910390f35b3480156100e257600080fd5b506100eb6101df565b005b3480156100f957600080fd5b506101026101f9565b60405161010f919061034e565b60405180910390f35b34801561012457600080fd5b5061013f600480360381019061013a919061039a565b610201565b60405161014c91906102f2565b60405180910390f35b34801561016157600080fd5b5061016a610219565b604051610177919061034e565b60405180910390f35b61018861023d565b005b34801561019657600080fd5b506101b160048036038101906101ac919061039a565b610295565b005b60025481565b600160009054906101000a900473ffffffffffffffffffffffffffffffffffffffff1681565b600260008154809291906101f2906103f6565b9190505550565b600030905090565b60036020528060005260406000206000915090505481565b60008054906101000a900473ffffffffffffffffffffffffffffffffffffffff1681565b34600360003373ffffffffffffffffffffffffffffffffffffffff1673ffffffffffffffffffffffffffffffffffffffff168152602001908152602001600020600082825461028c919061043e565b92505081905550565b80600160006101000a81548173ffffffffffffffffffffffffffffffffffffffff021916908373ffffffffffffffffffffffffffffffffffffffff16021790555050565b6000819050919050565b6102ec816102d9565b82525050565b600060208201905061030760008301846102e3565b92915050565b600073ffffffffffffffffffffffffffffffffffffffff82169050919050565b60006103388261030d565b9050919050565b6103488161032d565b82525050565b6000602082019050610363600083018461033f565b92915050565b600080fd5b6103778161032d565b811461038257600080fd5b50565b6000813590506103948161036e565b92915050565b6000602082840312156103b0576103af610369565b5b60006103be84828501610385565b91505092915050565b7f4e487b7100000000000000000000000000000000000000000000000000000000600052601160045260246000fd5b6000610401826102d9565b91507fffffffffffffffffffffffffffffffffffffffffffffffffffffffffffffffff8203610433576104326103c7565b5b600182019050919050565b6000610449826102d9565b9150610454836102d9565b925082820190508082111561046c5761046b6103c7565b5b9291505056fea2646970667358221220b8259182bed82eeca4ede82e6173d2c316d509a85f210937d1b1407a6b42dcb864736f6c63430008110033",
  "immutableReferences": {},
  "source": "// SPDX-License-Identifier: MIT\npragma solidity ^ 0.8.1;\nimport './ProxyStorage.sol';\n\ncontract Logic1 is ProxyStorage {\n    address public myAddress;\n    uint public myUint;\n    mapping (address => uint) public balanceOf;\n\n    function setAddress(address _address) public {\n        myAddress = _address;\n    }\n\n    function inc() public {\n        myUint++;\n    }\n\n    function deposit()public payable{\n        balanceOf[msg.sender] += msg.value;\n    }\n\n}",
  "sourcePath": "/home/neosoft/S/EIP/solidity/contracts/Logic1.sol",
  "compiler": {
    "name": "solc",
    "version": "0.8.17+commit.8df45f5f.Emscripten.clang"
  },
  "schemaVersion": "3.4.11",
  "updatedAt": "2022-12-28T09:17:27.217Z",
  "networkType": "ethereum",
  "devdoc": {
    "kind": "dev",
    "methods": {},
    "version": 1
  },
  "userdoc": {
    "kind": "user",
    "methods": {},
    "version": 1
  }
}