{
  "contractName": "Logic2",
  "abi": [
    {
      "inputs": [],
      "name": "_contractAddress",
      "outputs": [
        {
          "internalType": "address",
          "name": "",
          "type": "address"
        }
      ],
      "stateMutability": "view",
      "type": "function",
      "constant": true
    },
    {
      "inputs": [
        {
          "internalType": "address",
          "name": "",
          "type": "address"
        }
      ],
      "name": "balanceOf",
      "outputs": [
        {
          "internalType": "uint256",
          "name": "",
          "type": "uint256"
        }
      ],
      "stateMutability": "view",
      "type": "function",
      "constant": true
    },
    {
      "inputs": [],
      "name": "logicContractAddress",
      "outputs": [
        {
          "internalType": "address",
          "name": "",
          "type": "address"
        }
      ],
      "stateMutability": "view",
      "type": "function",
      "constant": true
    },
    {
      "inputs": [],
      "name": "myAddress",
      "outputs": [
        {
          "internalType": "address",
          "name": "",
          "type": "address"
        }
      ],
      "stateMutability": "view",
      "type": "function",
      "constant": true
    },
    {
      "inputs": [],
      "name": "myUint",
      "outputs": [
        {
          "internalType": "uint256",
          "name": "",
          "type": "uint256"
        }
      ],
      "stateMutability": "view",
      "type": "function",
      "constant": true
    },
    {
      "inputs": [
        {
          "internalType": "address",
          "name": "_address",
          "type": "address"
        }
      ],
      "name": "setAddress",
      "outputs": [],
      "stateMutability": "nonpayable",
      "type": "function"
    },
    {
      "inputs": [],
      "name": "inc",
      "outputs": [],
      "stateMutability": "nonpayable",
      "type": "function"
    },
    {
      "inputs": [],
      "name": "dec",
      "outputs": [],
      "stateMutability": "nonpayable",
      "type": "function"
    },
    {
      "inputs": [],
      "name": "deposit",
      "outputs": [],
      "stateMutability": "payable",
      "type": "function",
      "payable": true
    },
    {
      "inputs": [
        {
          "internalType": "uint256",
          "name": "_amount",
          "type": "uint256"
        }
      ],
      "name": "withdraw",
      "outputs": [],
      "stateMutability": "nonpayable",
      "type": "function"
    }
  ],
  "bytecode": "0x608060405234801561001057600080fd5b50610844806100206000396000f3fe6080604052600436106100915760003560e01c806370a082311161005957806370a0823114610157578063b3bcfa8214610194578063bccda810146101ab578063d0e30db0146101d6578063e30081a0146101e057610091565b806306540f7e1461009657806326b85ee1146100c15780632e1a7d4d146100ec578063371303c014610115578063379887671461012c575b600080fd5b3480156100a257600080fd5b506100ab610209565b6040516100b891906104c9565b60405180910390f35b3480156100cd57600080fd5b506100d661020f565b6040516100e39190610525565b60405180910390f35b3480156100f857600080fd5b50610113600480360381019061010e9190610571565b610235565b005b34801561012157600080fd5b5061012a610357565b005b34801561013857600080fd5b50610141610371565b60405161014e9190610525565b60405180910390f35b34801561016357600080fd5b5061017e600480360381019061017991906105ca565b610379565b60405161018b91906104c9565b60405180910390f35b3480156101a057600080fd5b506101a9610391565b005b3480156101b757600080fd5b506101c06103f0565b6040516101cd9190610525565b60405180910390f35b6101de610414565b005b3480156101ec57600080fd5b50610207600480360381019061020291906105ca565b61046c565b005b60025481565b600160009054906101000a900473ffffffffffffffffffffffffffffffffffffffff1681565b80600360003373ffffffffffffffffffffffffffffffffffffffff1673ffffffffffffffffffffffffffffffffffffffff1681526020019081526020016000205410156102b7576040517f08c379a00000000000000000000000000000000000000000000000000000000081526004016102ae90610654565b60405180910390fd5b80600360003373ffffffffffffffffffffffffffffffffffffffff1673ffffffffffffffffffffffffffffffffffffffff168152602001908152602001600020600082825461030691906106a3565b925050819055503373ffffffffffffffffffffffffffffffffffffffff166108fc829081150290604051600060405180830381858888f19350505050158015610353573d6000803e3d6000fd5b5050565b6002600081548092919061036a906106d7565b9190505550565b600030905090565b60036020528060005260406000206000915090505481565b6000600254116103d6576040517f08c379a00000000000000000000000000000000000000000000000000000000081526004016103cd90610791565b60405180910390fd5b600260008154809291906103e9906107b1565b9190505550565b60008054906101000a900473ffffffffffffffffffffffffffffffffffffffff1681565b34600360003373ffffffffffffffffffffffffffffffffffffffff1673ffffffffffffffffffffffffffffffffffffffff168152602001908152602001600020600082825461046391906107da565b92505081905550565b80600160006101000a81548173ffffffffffffffffffffffffffffffffffffffff021916908373ffffffffffffffffffffffffffffffffffffffff16021790555050565b6000819050919050565b6104c3816104b0565b82525050565b60006020820190506104de60008301846104ba565b92915050565b600073ffffffffffffffffffffffffffffffffffffffff82169050919050565b600061050f826104e4565b9050919050565b61051f81610504565b82525050565b600060208201905061053a6000830184610516565b92915050565b600080fd5b61054e816104b0565b811461055957600080fd5b50565b60008135905061056b81610545565b92915050565b60006020828403121561058757610586610540565b5b60006105958482850161055c565b91505092915050565b6105a781610504565b81146105b257600080fd5b50565b6000813590506105c48161059e565b92915050565b6000602082840312156105e0576105df610540565b5b60006105ee848285016105b5565b91505092915050565b600082825260208201905092915050565b7f496e73756666696369656e742042616c616e6365000000000000000000000000600082015250565b600061063e6014836105f7565b915061064982610608565b602082019050919050565b6000602082019050818103600083015261066d81610631565b9050919050565b7f4e487b7100000000000000000000000000000000000000000000000000000000600052601160045260246000fd5b60006106ae826104b0565b91506106b9836104b0565b92508282039050818111156106d1576106d0610674565b5b92915050565b60006106e2826104b0565b91507fffffffffffffffffffffffffffffffffffffffffffffffffffffffffffffffff820361071457610713610674565b5b600182019050919050565b7f6d7955696e74206973207a65726f20666972737420696e6372656d656e74206960008201527f742e000000000000000000000000000000000000000000000000000000000000602082015250565b600061077b6022836105f7565b91506107868261071f565b604082019050919050565b600060208201905081810360008301526107aa8161076e565b9050919050565b60006107bc826104b0565b9150600082036107cf576107ce610674565b5b600182039050919050565b60006107e5826104b0565b91506107f0836104b0565b925082820190508082111561080857610807610674565b5b9291505056fea2646970667358221220831927e3629df9cf1c5f95c72c664e041da90409ada7563366a0eb151eea8aff64736f6c63430008110033",
  "immutableReferences": {},
  "source": "// SPDX-License-Identifier: MIT\npragma solidity ^0.8.1;\nimport \"./ProxyStorage.sol\";\n\ncontract Logic2 is ProxyStorage {\n    address public myAddress;\n    uint256 public myUint;\n    mapping (address => uint) public balanceOf;\n\n    function setAddress(address _address) public {\n        myAddress = _address;\n    }\n\n    function inc() public {\n        myUint++;\n    }\n\n    function dec() public {\n        require(myUint > 0, \"myUint is zero first increment it.\");\n        myUint--;\n    }\n\n    function deposit()public payable{\n        balanceOf[msg.sender] += msg.value;\n    }\n\n    function withdraw(uint _amount)public {\n        require(balanceOf[msg.sender] >= _amount,\"Insufficient Balance\");\n        balanceOf[msg.sender] -= _amount;\n        payable(msg.sender).transfer(_amount);\n    }\n}\n",
  "sourcePath": "/home/neosoft/S/EIP/solidity/contracts/Logic2.sol",
  "compiler": {
    "name": "solc",
    "version": "0.8.17+commit.8df45f5f.Emscripten.clang"
  },
  "schemaVersion": "3.4.11",
  "updatedAt": "2022-12-28T09:17:27.570Z",
  "networkType": "ethereum",
  "devdoc": {
    "kind": "dev",
    "methods": {},
    "version": 1
  },
  "userdoc": {
    "kind": "user",
    "methods": {},
    "version": 1
  }
}